{
    "contractName": "Todolist",
    "abi": [
        {
            "constant": true,
            "inputs": [],
            "name": "todos_lenght",
            "outputs": [
                {
                    "name": "",
                    "type": "uint256"
                }
            ],
            "payable": false,
            "stateMutability": "view",
            "type": "function"
        },
        {
            "constant": true,
            "inputs": [],
            "name": "owner",
            "outputs": [
                {
                    "name": "",
                    "type": "address"
                }
            ],
            "payable": false,
            "stateMutability": "view",
            "type": "function"
        },
        {
            "inputs": [],
            "payable": false,
            "stateMutability": "nonpayable",
            "type": "constructor"
        },
        {
            "anonymous": false,
            "inputs": [
                {
                    "indexed": false,
                    "name": "date",
                    "type": "uint256"
                },
                {
                    "indexed": false,
                    "name": "from",
                    "type": "address"
                },
                {
                    "indexed": false,
                    "name": "id",
                    "type": "string"
                },
                {
                    "indexed": false,
                    "name": "data",
                    "type": "string"
                }
            ],
            "name": "NewTodoAdded",
            "type": "event"
        },
        {
            "constant": true,
            "inputs": [
                {
                    "name": "_todoid",
                    "type": "string"
                }
            ],
            "name": "readtodo",
            "outputs": [
                {
                    "name": "",
                    "type": "string"
                },
                {
                    "name": "",
                    "type": "bool"
                }
            ],
            "payable": false,
            "stateMutability": "view",
            "type": "function"
        },
        {
            "constant": false,
            "inputs": [
                {
                    "name": "_todoid",
                    "type": "string"
                },
                {
                    "name": "_data",
                    "type": "string"
                }
            ],
            "name": "addtodo",
            "outputs": [],
            "payable": false,
            "stateMutability": "nonpayable",
            "type": "function"
        },
        {
            "constant": false,
            "inputs": [
                {
                    "name": "_todoid",
                    "type": "string"
                },
                {
                    "name": "_data",
                    "type": "string"
                }
            ],
            "name": "updatetodo",
            "outputs": [],
            "payable": false,
            "stateMutability": "nonpayable",
            "type": "function"
        }
    ],
    "bytecode": "0x608060405234801561001057600080fd5b50336000806101000a81548173ffffffffffffffffffffffffffffffffffffffff021916908373ffffffffffffffffffffffffffffffffffffffff16021790555060006001819055506109a7806100686000396000f3fe60806040526004361061006d576000357c0100000000000000000000000000000000000000000000000000000000900463ffffffff168063559c6032146100725780638da5cb5b1461009d57806390ea6575146100f4578063f2b8ae3c14610240578063f3d8574f1461031b575b600080fd5b34801561007e57600080fd5b506100876103f6565b6040518082815260200191505060405180910390f35b3480156100a957600080fd5b506100b26103fc565b604051808273ffffffffffffffffffffffffffffffffffffffff1673ffffffffffffffffffffffffffffffffffffffff16815260200191505060405180910390f35b34801561010057600080fd5b506101ba6004803603602081101561011757600080fd5b810190808035906020019064010000000081111561013457600080fd5b82018360208201111561014657600080fd5b8035906020019184600183028401116401000000008311171561016857600080fd5b91908080601f016020809104026020016040519081016040528093929190818152602001838380828437600081840152601f19601f820116905080830192505050505050509192919290505050610421565b604051808060200183151515158152602001828103825284818151815260200191508051906020019080838360005b838110156102045780820151818401526020810190506101e9565b50505050905090810190601f1680156102315780820380516001836020036101000a031916815260200191505b50935050505060405180910390f35b34801561024c57600080fd5b506103196004803603604081101561026357600080fd5b810190808035906020019064010000000081111561028057600080fd5b82018360208201111561029257600080fd5b803590602001918460018302840111640100000000831117156102b457600080fd5b9091929391929390803590602001906401000000008111156102d557600080fd5b8201836020820111156102e757600080fd5b8035906020019184600183028401116401000000008311171561030957600080fd5b90919293919293905050506105b4565b005b34801561032757600080fd5b506103f46004803603604081101561033e57600080fd5b810190808035906020019064010000000081111561035b57600080fd5b82018360208201111561036d57600080fd5b8035906020019184600183028401116401000000008311171561038f57600080fd5b9091929391929390803590602001906401000000008111156103b057600080fd5b8201836020820111156103c257600080fd5b803590602001918460018302840111640100000000831117156103e457600080fd5b90919293919293905050506107fb565b005b60015481565b6000809054906101000a900473ffffffffffffffffffffffffffffffffffffffff1681565b606060006002836040518082805190602001908083835b60208310151561045d5780518252602082019150602081019050602083039250610438565b6001836020036101000a03801982511681845116808217855250505050505090500191505090815260200160405180910390206001016002846040518082805190602001908083835b6020831015156104cb57805182526020820191506020810190506020830392506104a6565b6001836020036101000a038019825116818451168082178552505050505050905001915050908152602001604051809103902060020160009054906101000a900460ff16818054600181600116156101000203166002900480601f0160208091040260200160405190810160405280929190818152602001828054600181600116156101000203166002900480156105a45780601f10610579576101008083540402835291602001916105a4565b820191906000526020600020905b81548152906001019060200180831161058757829003601f168201915b5050505050915091509150915091565b6000809054906101000a900473ffffffffffffffffffffffffffffffffffffffff1673ffffffffffffffffffffffffffffffffffffffff163373ffffffffffffffffffffffffffffffffffffffff16148015610645575060028484604051808383808284378083019250505092505050908152602001604051809103902060000160009054906101000a900460ff16155b151561065057600080fd5b7ffd86aa30bbc887a0b848bda18bb4418085f98db231410031cc9c7ccc3c24db67423386868686604051808781526020018673ffffffffffffffffffffffffffffffffffffffff1673ffffffffffffffffffffffffffffffffffffffff16815260200180602001806020018381038352878782818152602001925080828437600081840152601f19601f8201169050808301925050508381038252858582818152602001925080828437600081840152601f19601f8201169050808301925050509850505050505050505060405180910390a16001600081548092919060010191905055508181600286866040518083838082843780830192505050925050509081526020016040518091039020600101919061076e9291906108d6565b50600160028585604051808383808284378083019250505092505050908152602001604051809103902060000160006101000a81548160ff021916908315150217905550600060028585604051808383808284378083019250505092505050908152602001604051809103902060020160006101000a81548160ff02191690831515021790555050505050565b6000809054906101000a900473ffffffffffffffffffffffffffffffffffffffff1673ffffffffffffffffffffffffffffffffffffffff163373ffffffffffffffffffffffffffffffffffffffff1614801561088b575060028484604051808383808284378083019250505092505050908152602001604051809103902060000160009054906101000a900460ff165b151561089657600080fd5b818160028686604051808383808284378083019250505092505050908152602001604051809103902060010191906108cf9291906108d6565b5050505050565b828054600181600116156101000203166002900490600052602060002090601f016020900481019282601f1061091757803560ff1916838001178555610945565b82800160010185558215610945579182015b82811115610944578235825591602001919060010190610929565b5b5090506109529190610956565b5090565b61097891905b8082111561097457600081600090555060010161095c565b5090565b9056fea165627a7a7230582018544acd80dfc51e9d6d87418f38268866f32b70e5c3b478b345d681ba2f067c0029",
    "source": "pragma solidity ^0.5.0;\r\n\r\n\r\ncontract Todolist {\r\n    address public owner;\r\n    uint256 public todos_lenght;\r\n\r\n    constructor() public {\r\n        owner = msg.sender;\r\n        todos_lenght = 0;\r\n    }\r\n    \r\n    event NewTodoAdded (\r\n        uint date,\r\n        address from,\r\n        string id,\r\n        string data\r\n    );\r\n\r\n    struct todo {\r\n        bool has_data;\r\n        string todo_data;\r\n        bool isfinished;\r\n    }\r\n\r\n    mapping(string => todo) todos;\r\n    \r\n    \r\n    function readtodo(string memory _todoid) public view returns(string memory, bool){\r\n        return (todos[_todoid].todo_data, todos[_todoid].isfinished); \r\n    }\r\n\r\n  \r\n\r\n    function addtodo(string calldata _todoid, string calldata _data) external {\r\n        require((msg.sender == owner) && (!todos[_todoid].has_data));\r\n        emit NewTodoAdded(now, msg.sender, _todoid, _data);\r\n        todos_lenght++;\r\n        todos[_todoid].todo_data = _data;\r\n        todos[_todoid].has_data = true;\r\n        todos[_todoid].isfinished = false;\r\n        //todos[todos_lenght] = todo(_data, false, todos_lenght); i need to know hwo to add data to struct in a single line <= i tried this code and failed\r\n    }\r\n\r\n    function updatetodo(string calldata _todoid, string calldata _data)\r\n        external\r\n    {\r\n        require(msg.sender == owner && todos[_todoid].has_data);\r\n        todos[_todoid].todo_data = _data;\r\n    }\r\n}\r\n",
    "sourcePath": "E:\\solidty\\todo\\contracts\\Todolist.sol",
    "compiler": {
        "name": "solc",
        "version": "0.5.0+commit.1d4f565a.Emscripten.clang"
    },
    "schemaVersion": "3.0.23",
    "updatedAt": "2020-06-30T08:48:39.879Z",
    "networkType": "ethereum",
    "devdoc": {
        "methods": {}
    },
    "userdoc": {
        "methods": {}
    }
}