{
  "contractName": "Todolist",
  "abi": [
    {
      "constant": true,
      "inputs": [],
      "name": "todos_lenght",
      "outputs": [
        {
          "name": "",
          "type": "uint256"
        }
      ],
      "payable": false,
      "stateMutability": "view",
      "type": "function"
    },
    {
      "constant": true,
      "inputs": [],
      "name": "owner",
      "outputs": [
        {
          "name": "",
          "type": "address"
        }
      ],
      "payable": false,
      "stateMutability": "view",
      "type": "function"
    },
    {
      "inputs": [],
      "payable": false,
      "stateMutability": "nonpayable",
      "type": "constructor"
    },
    {
      "anonymous": false,
      "inputs": [
        {
          "indexed": false,
          "name": "date",
          "type": "uint256"
        },
        {
          "indexed": false,
          "name": "from",
          "type": "address"
        },
        {
          "indexed": false,
          "name": "id",
          "type": "string"
        },
        {
          "indexed": false,
          "name": "data",
          "type": "string"
        }
      ],
      "name": "NewTodoAdded",
      "type": "event"
    },
    {
      "constant": true,
      "inputs": [
        {
          "name": "_todoid",
          "type": "string"
        }
      ],
      "name": "readtodo",
      "outputs": [
        {
          "name": "",
          "type": "string"
        },
        {
          "name": "",
          "type": "bool"
        },
        {
          "name": "",
          "type": "bool"
        },
        {
          "name": "",
          "type": "uint256"
        }
      ],
      "payable": false,
      "stateMutability": "view",
      "type": "function"
    },
    {
      "constant": false,
      "inputs": [
        {
          "name": "_todoid",
          "type": "string"
        },
        {
          "name": "_data",
          "type": "string"
        }
      ],
      "name": "addtodo",
      "outputs": [],
      "payable": false,
      "stateMutability": "nonpayable",
      "type": "function"
    },
    {
      "constant": false,
      "inputs": [
        {
          "name": "_todoid",
          "type": "string"
        },
        {
          "name": "_data",
          "type": "string"
        }
      ],
      "name": "updatetodo",
      "outputs": [],
      "payable": false,
      "stateMutability": "nonpayable",
      "type": "function"
    },
    {
      "constant": false,
      "inputs": [
        {
          "name": "_todoid",
          "type": "string"
        }
      ],
      "name": "completetodo",
      "outputs": [],
      "payable": false,
      "stateMutability": "nonpayable",
      "type": "function"
    }
  ],
  "bytecode": "0x608060405234801561001057600080fd5b50336000806101000a81548173ffffffffffffffffffffffffffffffffffffffff021916908373ffffffffffffffffffffffffffffffffffffffff1602179055506000600181905550610bb6806100686000396000f3fe608060405260043610610078576000357c0100000000000000000000000000000000000000000000000000000000900463ffffffff168063559c60321461007d5780638da5cb5b146100a857806390ea6575146100ff578063aced5d241461025d578063f2b8ae3c146102e3578063f3d8574f146103be575b600080fd5b34801561008957600080fd5b50610092610499565b6040518082815260200191505060405180910390f35b3480156100b457600080fd5b506100bd61049f565b604051808273ffffffffffffffffffffffffffffffffffffffff1673ffffffffffffffffffffffffffffffffffffffff16815260200191505060405180910390f35b34801561010b57600080fd5b506101c56004803603602081101561012257600080fd5b810190808035906020019064010000000081111561013f57600080fd5b82018360208201111561015157600080fd5b8035906020019184600183028401116401000000008311171561017357600080fd5b91908080601f016020809104026020016040519081016040528093929190818152602001838380828437600081840152601f19601f8201169050808301925050505050505091929192905050506104c4565b60405180806020018515151515815260200184151515158152602001838152602001828103825286818151815260200191508051906020019080838360005b8381101561021f578082015181840152602081019050610204565b50505050905090810190601f16801561024c5780820380516001836020036101000a031916815260200191505b509550505050505060405180910390f35b34801561026957600080fd5b506102e16004803603602081101561028057600080fd5b810190808035906020019064010000000081111561029d57600080fd5b8201836020820111156102af57600080fd5b803590602001918460018302840111640100000000831117156102d157600080fd5b909192939192939050505061074b565b005b3480156102ef57600080fd5b506103bc6004803603604081101561030657600080fd5b810190808035906020019064010000000081111561032357600080fd5b82018360208201111561033557600080fd5b8035906020019184600183028401116401000000008311171561035757600080fd5b90919293919293908035906020019064010000000081111561037857600080fd5b82018360208201111561038a57600080fd5b803590602001918460018302840111640100000000831117156103ac57600080fd5b9091929391929390505050610792565b005b3480156103ca57600080fd5b50610497600480360360408110156103e157600080fd5b81019080803590602001906401000000008111156103fe57600080fd5b82018360208201111561041057600080fd5b8035906020019184600183028401116401000000008311171561043257600080fd5b90919293919293908035906020019064010000000081111561045357600080fd5b82018360208201111561046557600080fd5b8035906020019184600183028401116401000000008311171561048757600080fd5b9091929391929390505050610a0a565b005b60015481565b6000809054906101000a900473ffffffffffffffffffffffffffffffffffffffff1681565b606060008060006002856040518082805190602001908083835b60208310151561050357805182526020820191506020810190506020830392506104de565b6001836020036101000a03801982511681845116808217855250505050505090500191505090815260200160405180910390206001016002866040518082805190602001908083835b602083101515610571578051825260208201915060208101905060208303925061054c565b6001836020036101000a038019825116818451168082178552505050505050905001915050908152602001604051809103902060020160009054906101000a900460ff166002876040518082805190602001908083835b6020831015156105ed57805182526020820191506020810190506020830392506105c8565b6001836020036101000a038019825116818451168082178552505050505050905001915050908152602001604051809103902060000160009054906101000a900460ff166002886040518082805190602001908083835b6020831015156106695780518252602082019150602081019050602083039250610644565b6001836020036101000a038019825116818451168082178552505050505050905001915050908152602001604051809103902060030154838054600181600116156101000203166002900480601f0160208091040260200160405190810160405280929190818152602001828054600181600116156101000203166002900480156107355780601f1061070a57610100808354040283529160200191610735565b820191906000526020600020905b81548152906001019060200180831161071857829003601f168201915b5050505050935093509350935093509193509193565b600160028383604051808383808284378083019250505092505050908152602001604051809103902060020160006101000a81548160ff0219169083151502179055505050565b6000809054906101000a900473ffffffffffffffffffffffffffffffffffffffff1673ffffffffffffffffffffffffffffffffffffffff163373ffffffffffffffffffffffffffffffffffffffff16148015610823575060028484604051808383808284378083019250505092505050908152602001604051809103902060000160009054906101000a900460ff16155b151561082e57600080fd5b7ffd86aa30bbc887a0b848bda18bb4418085f98db231410031cc9c7ccc3c24db67423386868686604051808781526020018673ffffffffffffffffffffffffffffffffffffffff1673ffffffffffffffffffffffffffffffffffffffff16815260200180602001806020018381038352878782818152602001925080828437600081840152601f19601f8201169050808301925050508381038252858582818152602001925080828437600081840152601f19601f8201169050808301925050509850505050505050505060405180910390a1600160008154809291906001019190505550600154600285856040518083838082843780830192505050925050509081526020016040518091039020600301819055508181600286866040518083838082843780830192505050925050509081526020016040518091039020600101919061097d929190610ae5565b50600160028585604051808383808284378083019250505092505050908152602001604051809103902060000160006101000a81548160ff021916908315150217905550600060028585604051808383808284378083019250505092505050908152602001604051809103902060020160006101000a81548160ff02191690831515021790555050505050565b6000809054906101000a900473ffffffffffffffffffffffffffffffffffffffff1673ffffffffffffffffffffffffffffffffffffffff163373ffffffffffffffffffffffffffffffffffffffff16148015610a9a575060028484604051808383808284378083019250505092505050908152602001604051809103902060000160009054906101000a900460ff165b1515610aa557600080fd5b81816002868660405180838380828437808301925050509250505090815260200160405180910390206001019190610ade929190610ae5565b5050505050565b828054600181600116156101000203166002900490600052602060002090601f016020900481019282601f10610b2657803560ff1916838001178555610b54565b82800160010185558215610b54579182015b82811115610b53578235825591602001919060010190610b38565b5b509050610b619190610b65565b5090565b610b8791905b80821115610b83576000816000905550600101610b6b565b5090565b9056fea165627a7a7230582091b1557cad87ccaa4db422ae7806d48c00c9effe2814cfdd96cb990c71ba09f70029",
  "source": "pragma solidity ^0.5.0;\r\n\r\n\r\ncontract Todolist {\r\n    address public owner;\r\n    uint256 public todos_lenght;\r\n\r\n    constructor() public {\r\n        owner = msg.sender;\r\n        todos_lenght = 0;\r\n    }\r\n    \r\n    event NewTodoAdded (\r\n        uint date,\r\n        address from,\r\n        string id,\r\n        string data\r\n    );\r\n\r\n    struct todo {\r\n        bool has_data;\r\n        string todo_data;\r\n        bool isfinished;\r\n        uint todo_Id;\r\n    }\r\n\r\n    mapping(string => todo) todos;\r\n    \r\n    \r\n    function readtodo(string memory _todoid) public view returns(string memory,bool, bool, uint){\r\n        return (todos[_todoid].todo_data,  todos[_todoid].isfinished, todos[_todoid].has_data, todos[_todoid].todo_Id); \r\n    }\r\n\r\n  \r\n\r\n    function addtodo(string calldata _todoid, string calldata _data) external {\r\n        require((msg.sender == owner) && (!todos[_todoid].has_data));\r\n        emit NewTodoAdded(now, msg.sender, _todoid, _data);\r\n        todos_lenght++;\r\n        todos[_todoid].todo_Id = todos_lenght;\r\n        todos[_todoid].todo_data = _data;\r\n        todos[_todoid].has_data = true;\r\n        todos[_todoid].isfinished = false;\r\n        //todos[todos_lenght] = todo(_data, false, todos_lenght); i need to know hwo to add data to struct in a single line <= i tried this code and failed\r\n    }\r\n\r\n    function updatetodo(string calldata _todoid, string calldata _data)\r\n        external\r\n    {\r\n        require(msg.sender == owner && todos[_todoid].has_data);\r\n        todos[_todoid].todo_data = _data;\r\n    }\r\n    \r\n    function completetodo(string calldata _todoid) external {\r\n         todos[_todoid].isfinished = true;\r\n    }\r\n}\r\n",
  "sourcePath": "E:\\solidty\\todo\\contracts\\Todolist.sol",
  "compiler": {
    "name": "solc",
    "version": "0.5.0+commit.1d4f565a.Emscripten.clang"
  },
  "schemaVersion": "3.0.23",
  "updatedAt": "2020-07-11T16:41:54.684Z",
  "networkType": "ethereum",
  "devdoc": {
    "methods": {}
  },
  "userdoc": {
    "methods": {}
  }
}